{
  "_format": "hh-sol-artifact-1",
  "contractName": "StakeTracker",
  "sourceName": "contracts/StakeTracker.sol",
  "abi": [
    {
      "inputs": [],
      "stateMutability": "nonpayable",
      "type": "constructor"
    },
    {
      "anonymous": false,
      "inputs": [
        {
          "indexed": true,
          "internalType": "address",
          "name": "staker",
          "type": "address"
        },
        {
          "indexed": false,
          "internalType": "uint256",
          "name": "amount",
          "type": "uint256"
        }
      ],
      "name": "Stake",
      "type": "event"
    },
    {
      "anonymous": false,
      "inputs": [
        {
          "indexed": true,
          "internalType": "address",
          "name": "staker",
          "type": "address"
        },
        {
          "indexed": false,
          "internalType": "uint256",
          "name": "amount",
          "type": "uint256"
        }
      ],
      "name": "Unstake",
      "type": "event"
    },
    {
      "inputs": [],
      "name": "stake",
      "outputs": [],
      "stateMutability": "payable",
      "type": "function"
    },
    {
      "inputs": [
        {
          "internalType": "address",
          "name": "",
          "type": "address"
        }
      ],
      "name": "stakes",
      "outputs": [
        {
          "internalType": "uint256",
          "name": "",
          "type": "uint256"
        }
      ],
      "stateMutability": "view",
      "type": "function"
    },
    {
      "inputs": [
        {
          "internalType": "uint256",
          "name": "amount",
          "type": "uint256"
        }
      ],
      "name": "unStake",
      "outputs": [],
      "stateMutability": "nonpayable",
      "type": "function"
    }
  ],
  "bytecode": "0x608060405234801561001057600080fd5b506105ea806100206000396000f3fe6080604052600436106100345760003560e01c806316934fc4146100395780633a4b66f1146100765780635d3eea9114610080575b600080fd5b34801561004557600080fd5b50610060600480360381019061005b919061037a565b6100a9565b60405161006d91906103c0565b60405180910390f35b61007e6100c1565b005b34801561008c57600080fd5b506100a760048036038101906100a29190610407565b6101a9565b005b60006020528060005260406000206000915090505481565b60003411610104576040517f08c379a00000000000000000000000000000000000000000000000000000000081526004016100fb90610491565b60405180910390fd5b346000803373ffffffffffffffffffffffffffffffffffffffff1673ffffffffffffffffffffffffffffffffffffffff168152602001908152602001600020600082825461015291906104e0565b925050819055503373ffffffffffffffffffffffffffffffffffffffff167febedb8b3c678666e7f36970bc8f57abf6d8fa2e828c0da91ea5b75bf68ed101a3460405161019f91906103c0565b60405180910390a2565b806000803373ffffffffffffffffffffffffffffffffffffffff1673ffffffffffffffffffffffffffffffffffffffff16815260200190815260200160002054101561022a576040517f08c379a000000000000000000000000000000000000000000000000000000000815260040161022190610560565b60405180910390fd5b806000803373ffffffffffffffffffffffffffffffffffffffff1673ffffffffffffffffffffffffffffffffffffffff16815260200190815260200160002060008282546102789190610580565b925050819055503373ffffffffffffffffffffffffffffffffffffffff166108fc829081150290604051600060405180830381858888f193505050501580156102c5573d6000803e3d6000fd5b503373ffffffffffffffffffffffffffffffffffffffff167f85082129d87b2fe11527cb1b3b7a520aeb5aa6913f88a3d8757fe40d1db02fdd8260405161030c91906103c0565b60405180910390a250565b600080fd5b600073ffffffffffffffffffffffffffffffffffffffff82169050919050565b60006103478261031c565b9050919050565b6103578161033c565b811461036257600080fd5b50565b6000813590506103748161034e565b92915050565b6000602082840312156103905761038f610317565b5b600061039e84828501610365565b91505092915050565b6000819050919050565b6103ba816103a7565b82525050565b60006020820190506103d560008301846103b1565b92915050565b6103e4816103a7565b81146103ef57600080fd5b50565b600081359050610401816103db565b92915050565b60006020828403121561041d5761041c610317565b5b600061042b848285016103f2565b91505092915050565b600082825260208201905092915050565b7f4d7573742073656e642045544800000000000000000000000000000000000000600082015250565b600061047b600d83610434565b915061048682610445565b602082019050919050565b600060208201905081810360008301526104aa8161046e565b9050919050565b7f4e487b7100000000000000000000000000000000000000000000000000000000600052601160045260246000fd5b60006104eb826103a7565b91506104f6836103a7565b925082820190508082111561050e5761050d6104b1565b5b92915050565b7f496e737566696369656e74205374616500000000000000000000000000000000600082015250565b600061054a601083610434565b915061055582610514565b602082019050919050565b600060208201905081810360008301526105798161053d565b9050919050565b600061058b826103a7565b9150610596836103a7565b92508282039050818111156105ae576105ad6104b1565b5b9291505056fea26469706673582212207a5edf8e38eec996aebcc73e1e81cd18a87f67d67fd055cb6f693b583bea51d964736f6c63430008150033",
  "linkReferences": {},
  "deployedLinkReferences": {}
}